{
  "_format": "hh-sol-artifact-1",
  "contractName": "EvolvingNFT",
  "sourceName": "contracts/EvolvingNFT.sol",
  "abi": [
    {
      "inputs": [
        {
          "internalType": "address",
          "name": "initialOwner",
          "type": "address"
        }
      ],
      "stateMutability": "nonpayable",
      "type": "constructor"
    },
    {
      "inputs": [
        {
          "internalType": "address",
          "name": "sender",
          "type": "address"
        },
        {
          "internalType": "uint256",
          "name": "tokenId",
          "type": "uint256"
        },
        {
          "internalType": "address",
          "name": "owner",
          "type": "address"
        }
      ],
      "name": "ERC721IncorrectOwner",
      "type": "error"
    },
    {
      "inputs": [
        {
          "internalType": "address",
          "name": "operator",
          "type": "address"
        },
        {
          "internalType": "uint256",
          "name": "tokenId",
          "type": "uint256"
        }
      ],
      "name": "ERC721InsufficientApproval",
      "type": "error"
    },
    {
      "inputs": [
        {
          "internalType": "address",
          "name": "approver",
          "type": "address"
        }
      ],
      "name": "ERC721InvalidApprover",
      "type": "error"
    },
    {
      "inputs": [
        {
          "internalType": "address",
          "name": "operator",
          "type": "address"
        }
      ],
      "name": "ERC721InvalidOperator",
      "type": "error"
    },
    {
      "inputs": [
        {
          "internalType": "address",
          "name": "owner",
          "type": "address"
        }
      ],
      "name": "ERC721InvalidOwner",
      "type": "error"
    },
    {
      "inputs": [
        {
          "internalType": "address",
          "name": "receiver",
          "type": "address"
        }
      ],
      "name": "ERC721InvalidReceiver",
      "type": "error"
    },
    {
      "inputs": [
        {
          "internalType": "address",
          "name": "sender",
          "type": "address"
        }
      ],
      "name": "ERC721InvalidSender",
      "type": "error"
    },
    {
      "inputs": [
        {
          "internalType": "uint256",
          "name": "tokenId",
          "type": "uint256"
        }
      ],
      "name": "ERC721NonexistentToken",
      "type": "error"
    },
    {
      "inputs": [
        {
          "internalType": "address",
          "name": "owner",
          "type": "address"
        }
      ],
      "name": "OwnableInvalidOwner",
      "type": "error"
    },
    {
      "inputs": [
        {
          "internalType": "address",
          "name": "account",
          "type": "address"
        }
      ],
      "name": "OwnableUnauthorizedAccount",
      "type": "error"
    },
    {
      "anonymous": false,
      "inputs": [
        {
          "indexed": true,
          "internalType": "address",
          "name": "owner",
          "type": "address"
        },
        {
          "indexed": true,
          "internalType": "address",
          "name": "approved",
          "type": "address"
        },
        {
          "indexed": true,
          "internalType": "uint256",
          "name": "tokenId",
          "type": "uint256"
        }
      ],
      "name": "Approval",
      "type": "event"
    },
    {
      "anonymous": false,
      "inputs": [
        {
          "indexed": true,
          "internalType": "address",
          "name": "owner",
          "type": "address"
        },
        {
          "indexed": true,
          "internalType": "address",
          "name": "operator",
          "type": "address"
        },
        {
          "indexed": false,
          "internalType": "bool",
          "name": "approved",
          "type": "bool"
        }
      ],
      "name": "ApprovalForAll",
      "type": "event"
    },
    {
      "anonymous": false,
      "inputs": [
        {
          "indexed": false,
          "internalType": "uint256",
          "name": "_fromTokenId",
          "type": "uint256"
        },
        {
          "indexed": false,
          "internalType": "uint256",
          "name": "_toTokenId",
          "type": "uint256"
        }
      ],
      "name": "BatchMetadataUpdate",
      "type": "event"
    },
    {
      "anonymous": false,
      "inputs": [
        {
          "indexed": false,
          "internalType": "uint256[]",
          "name": "tokenIds",
          "type": "uint256[]"
        },
        {
          "indexed": false,
          "internalType": "enum EvolvingNFT.NFTStage",
          "name": "stage",
          "type": "uint8"
        },
        {
          "indexed": false,
          "internalType": "string",
          "name": "tokenURI",
          "type": "string"
        },
        {
          "indexed": false,
          "internalType": "uint256",
          "name": "evolutionThreshold",
          "type": "uint256"
        }
      ],
      "name": "BatchStageDetailsSet",
      "type": "event"
    },
    {
      "anonymous": false,
      "inputs": [
        {
          "indexed": true,
          "internalType": "uint256",
          "name": "tokenId",
          "type": "uint256"
        },
        {
          "indexed": false,
          "internalType": "enum EvolvingNFT.NFTStage",
          "name": "newStage",
          "type": "uint8"
        },
        {
          "indexed": false,
          "internalType": "string",
          "name": "newURI",
          "type": "string"
        }
      ],
      "name": "Evolved",
      "type": "event"
    },
    {
      "anonymous": false,
      "inputs": [
        {
          "indexed": false,
          "internalType": "uint256",
          "name": "_tokenId",
          "type": "uint256"
        }
      ],
      "name": "MetadataUpdate",
      "type": "event"
    },
    {
      "anonymous": false,
      "inputs": [
        {
          "indexed": true,
          "internalType": "address",
          "name": "previousOwner",
          "type": "address"
        },
        {
          "indexed": true,
          "internalType": "address",
          "name": "newOwner",
          "type": "address"
        }
      ],
      "name": "OwnershipTransferred",
      "type": "event"
    },
    {
      "anonymous": false,
      "inputs": [
        {
          "indexed": true,
          "internalType": "uint256",
          "name": "tokenId",
          "type": "uint256"
        },
        {
          "indexed": false,
          "internalType": "enum EvolvingNFT.NFTStage",
          "name": "stage",
          "type": "uint8"
        },
        {
          "indexed": false,
          "internalType": "string",
          "name": "tokenURI",
          "type": "string"
        },
        {
          "indexed": false,
          "internalType": "uint256",
          "name": "evolutionThreshold",
          "type": "uint256"
        }
      ],
      "name": "StageDetailsSet",
      "type": "event"
    },
    {
      "anonymous": false,
      "inputs": [
        {
          "indexed": true,
          "internalType": "address",
          "name": "from",
          "type": "address"
        },
        {
          "indexed": true,
          "internalType": "address",
          "name": "to",
          "type": "address"
        },
        {
          "indexed": true,
          "internalType": "uint256",
          "name": "tokenId",
          "type": "uint256"
        }
      ],
      "name": "Transfer",
      "type": "event"
    },
    {
      "anonymous": false,
      "inputs": [
        {
          "indexed": true,
          "internalType": "uint256",
          "name": "tokenId",
          "type": "uint256"
        },
        {
          "indexed": false,
          "internalType": "uint256",
          "name": "newWateringCount",
          "type": "uint256"
        },
        {
          "indexed": false,
          "internalType": "enum EvolvingNFT.NFTStage",
          "name": "currentStage",
          "type": "uint8"
        }
      ],
      "name": "Watered",
      "type": "event"
    },
    {
      "inputs": [],
      "name": "WATERING_COOLDOWN",
      "outputs": [
        {
          "internalType": "uint256",
          "name": "",
          "type": "uint256"
        }
      ],
      "stateMutability": "view",
      "type": "function"
    },
    {
      "inputs": [
        {
          "internalType": "address",
          "name": "to",
          "type": "address"
        },
        {
          "internalType": "uint256",
          "name": "tokenId",
          "type": "uint256"
        }
      ],
      "name": "approve",
      "outputs": [],
      "stateMutability": "nonpayable",
      "type": "function"
    },
    {
      "inputs": [
        {
          "internalType": "address",
          "name": "owner",
          "type": "address"
        }
      ],
      "name": "balanceOf",
      "outputs": [
        {
          "internalType": "uint256",
          "name": "",
          "type": "uint256"
        }
      ],
      "stateMutability": "view",
      "type": "function"
    },
    {
      "inputs": [
        {
          "internalType": "uint256[]",
          "name": "tokenIds",
          "type": "uint256[]"
        },
        {
          "internalType": "enum EvolvingNFT.NFTStage",
          "name": "stage",
          "type": "uint8"
        },
        {
          "internalType": "string",
          "name": "newStageTokenURI",
          "type": "string"
        },
        {
          "internalType": "uint256",
          "name": "evolutionThreshold",
          "type": "uint256"
        }
      ],
      "name": "batchSetStageDetails",
      "outputs": [],
      "stateMutability": "nonpayable",
      "type": "function"
    },
    {
      "inputs": [
        {
          "internalType": "uint256",
          "name": "tokenId",
          "type": "uint256"
        }
      ],
      "name": "evolve",
      "outputs": [],
      "stateMutability": "nonpayable",
      "type": "function"
    },
    {
      "inputs": [
        {
          "internalType": "uint256",
          "name": "tokenId",
          "type": "uint256"
        }
      ],
      "name": "getApproved",
      "outputs": [
        {
          "internalType": "address",
          "name": "",
          "type": "address"
        }
      ],
      "stateMutability": "view",
      "type": "function"
    },
    {
      "inputs": [
        {
          "internalType": "uint256",
          "name": "tokenId",
          "type": "uint256"
        }
      ],
      "name": "getNFTDetails",
      "outputs": [
        {
          "internalType": "enum EvolvingNFT.NFTStage",
          "name": "currentStage",
          "type": "uint8"
        },
        {
          "internalType": "uint256",
          "name": "wateringCount",
          "type": "uint256"
        },
        {
          "internalType": "uint256",
          "name": "lastWateredTimestamp",
          "type": "uint256"
        },
        {
          "internalType": "uint256",
          "name": "currentStageEvolutionThreshold",
          "type": "uint256"
        },
        {
          "internalType": "string",
          "name": "currentStageTokenURI",
          "type": "string"
        },
        {
          "internalType": "bool",
          "name": "canEvolve",
          "type": "bool"
        }
      ],
      "stateMutability": "view",
      "type": "function"
    },
    {
      "inputs": [
        {
          "internalType": "uint256",
          "name": "tokenId",
          "type": "uint256"
        },
        {
          "internalType": "enum EvolvingNFT.NFTStage",
          "name": "stage",
          "type": "uint8"
        }
      ],
      "name": "getStageURI",
      "outputs": [
        {
          "internalType": "string",
          "name": "",
          "type": "string"
        }
      ],
      "stateMutability": "view",
      "type": "function"
    },
    {
      "inputs": [
        {
          "internalType": "address",
          "name": "owner",
          "type": "address"
        },
        {
          "internalType": "address",
          "name": "operator",
          "type": "address"
        }
      ],
      "name": "isApprovedForAll",
      "outputs": [
        {
          "internalType": "bool",
          "name": "",
          "type": "bool"
        }
      ],
      "stateMutability": "view",
      "type": "function"
    },
    {
      "inputs": [
        {
          "internalType": "address",
          "name": "recipient",
          "type": "address"
        },
        {
          "internalType": "string",
          "name": "initialSeedURI",
          "type": "string"
        }
      ],
      "name": "mintNFT",
      "outputs": [
        {
          "internalType": "uint256",
          "name": "",
          "type": "uint256"
        }
      ],
      "stateMutability": "nonpayable",
      "type": "function"
    },
    {
      "inputs": [],
      "name": "name",
      "outputs": [
        {
          "internalType": "string",
          "name": "",
          "type": "string"
        }
      ],
      "stateMutability": "view",
      "type": "function"
    },
    {
      "inputs": [],
      "name": "owner",
      "outputs": [
        {
          "internalType": "address",
          "name": "",
          "type": "address"
        }
      ],
      "stateMutability": "view",
      "type": "function"
    },
    {
      "inputs": [
        {
          "internalType": "uint256",
          "name": "tokenId",
          "type": "uint256"
        }
      ],
      "name": "ownerOf",
      "outputs": [
        {
          "internalType": "address",
          "name": "",
          "type": "address"
        }
      ],
      "stateMutability": "view",
      "type": "function"
    },
    {
      "inputs": [],
      "name": "renounceOwnership",
      "outputs": [],
      "stateMutability": "nonpayable",
      "type": "function"
    },
    {
      "inputs": [
        {
          "internalType": "address",
          "name": "from",
          "type": "address"
        },
        {
          "internalType": "address",
          "name": "to",
          "type": "address"
        },
        {
          "internalType": "uint256",
          "name": "tokenId",
          "type": "uint256"
        }
      ],
      "name": "safeTransferFrom",
      "outputs": [],
      "stateMutability": "nonpayable",
      "type": "function"
    },
    {
      "inputs": [
        {
          "internalType": "address",
          "name": "from",
          "type": "address"
        },
        {
          "internalType": "address",
          "name": "to",
          "type": "address"
        },
        {
          "internalType": "uint256",
          "name": "tokenId",
          "type": "uint256"
        },
        {
          "internalType": "bytes",
          "name": "data",
          "type": "bytes"
        }
      ],
      "name": "safeTransferFrom",
      "outputs": [],
      "stateMutability": "nonpayable",
      "type": "function"
    },
    {
      "inputs": [
        {
          "internalType": "address",
          "name": "operator",
          "type": "address"
        },
        {
          "internalType": "bool",
          "name": "approved",
          "type": "bool"
        }
      ],
      "name": "setApprovalForAll",
      "outputs": [],
      "stateMutability": "nonpayable",
      "type": "function"
    },
    {
      "inputs": [
        {
          "internalType": "uint256",
          "name": "tokenId",
          "type": "uint256"
        },
        {
          "internalType": "enum EvolvingNFT.NFTStage",
          "name": "stage",
          "type": "uint8"
        },
        {
          "internalType": "string",
          "name": "newStageTokenURI",
          "type": "string"
        },
        {
          "internalType": "uint256",
          "name": "evolutionThreshold",
          "type": "uint256"
        }
      ],
      "name": "setStageDetails",
      "outputs": [],
      "stateMutability": "nonpayable",
      "type": "function"
    },
    {
      "inputs": [
        {
          "internalType": "bytes4",
          "name": "interfaceId",
          "type": "bytes4"
        }
      ],
      "name": "supportsInterface",
      "outputs": [
        {
          "internalType": "bool",
          "name": "",
          "type": "bool"
        }
      ],
      "stateMutability": "view",
      "type": "function"
    },
    {
      "inputs": [],
      "name": "symbol",
      "outputs": [
        {
          "internalType": "string",
          "name": "",
          "type": "string"
        }
      ],
      "stateMutability": "view",
      "type": "function"
    },
    {
      "inputs": [
        {
          "internalType": "uint256",
          "name": "tokenId",
          "type": "uint256"
        }
      ],
      "name": "tokenURI",
      "outputs": [
        {
          "internalType": "string",
          "name": "",
          "type": "string"
        }
      ],
      "stateMutability": "view",
      "type": "function"
    },
    {
      "inputs": [],
      "name": "totalSupply",
      "outputs": [
        {
          "internalType": "uint256",
          "name": "",
          "type": "uint256"
        }
      ],
      "stateMutability": "view",
      "type": "function"
    },
    {
      "inputs": [
        {
          "internalType": "address",
          "name": "from",
          "type": "address"
        },
        {
          "internalType": "address",
          "name": "to",
          "type": "address"
        },
        {
          "internalType": "uint256",
          "name": "tokenId",
          "type": "uint256"
        }
      ],
      "name": "transferFrom",
      "outputs": [],
      "stateMutability": "nonpayable",
      "type": "function"
    },
    {
      "inputs": [
        {
          "internalType": "address",
          "name": "newOwner",
          "type": "address"
        }
      ],
      "name": "transferOwnership",
      "outputs": [],
      "stateMutability": "nonpayable",
      "type": "function"
    },
    {
      "inputs": [
        {
          "internalType": "uint256",
          "name": "tokenId",
          "type": "uint256"
        }
      ],
      "name": "water",
      "outputs": [],
      "stateMutability": "nonpayable",
      "type": "function"
    }
  ],
  "bytecode": "0x608060405234801561001057600080fd5b506040516146b83803806146b883398181016040528101906100329190610272565b806040518060400160405280600c81526020017f45766f6c76696e67204e465400000000000000000000000000000000000000008152506040518060400160405280600681526020017f45564f4c5645000000000000000000000000000000000000000000000000000081525081600090816100ae91906104ef565b5080600190816100be91906104ef565b505050600073ffffffffffffffffffffffffffffffffffffffff168173ffffffffffffffffffffffffffffffffffffffff16036101335760006040517f1e4fbdf700000000000000000000000000000000000000000000000000000000815260040161012a91906105d0565b60405180910390fd5b6101428161014960201b60201c565b50506105eb565b6000600760009054906101000a900473ffffffffffffffffffffffffffffffffffffffff16905081600760006101000a81548173ffffffffffffffffffffffffffffffffffffffff021916908373ffffffffffffffffffffffffffffffffffffffff1602179055508173ffffffffffffffffffffffffffffffffffffffff168173ffffffffffffffffffffffffffffffffffffffff167f8be0079c531659141344cd1fd0a4f28419497f9722a3daafe3b4186f6b6457e060405160405180910390a35050565b600080fd5b600073ffffffffffffffffffffffffffffffffffffffff82169050919050565b600061023f82610214565b9050919050565b61024f81610234565b811461025a57600080fd5b50565b60008151905061026c81610246565b92915050565b6000602082840312156102885761028761020f565b5b60006102968482850161025d565b91505092915050565b600081519050919050565b7f4e487b7100000000000000000000000000000000000000000000000000000000600052604160045260246000fd5b7f4e487b7100000000000000000000000000000000000000000000000000000000600052602260045260246000fd5b6000600282049050600182168061032057607f821691505b602082108103610333576103326102d9565b5b50919050565b60008190508160005260206000209050919050565b60006020601f8301049050919050565b600082821b905092915050565b60006008830261039b7fffffffffffffffffffffffffffffffffffffffffffffffffffffffffffffffff8261035e565b6103a5868361035e565b95508019841693508086168417925050509392505050565b6000819050919050565b6000819050919050565b60006103ec6103e76103e2846103bd565b6103c7565b6103bd565b9050919050565b6000819050919050565b610406836103d1565b61041a610412826103f3565b84845461036b565b825550505050565b600090565b61042f610422565b61043a8184846103fd565b505050565b5b8181101561045e57610453600082610427565b600181019050610440565b5050565b601f8211156104a35761047481610339565b61047d8461034e565b8101602085101561048c578190505b6104a06104988561034e565b83018261043f565b50505b505050565b600082821c905092915050565b60006104c6600019846008026104a8565b1980831691505092915050565b60006104df83836104b5565b9150826002028217905092915050565b6104f88261029f565b67ffffffffffffffff811115610511576105106102aa565b5b61051b8254610308565b610526828285610462565b600060209050601f8311600181146105595760008415610547578287015190505b61055185826104d3565b8655506105b9565b601f19841661056786610339565b60005b8281101561058f5784890151825560018201915060208501945060208101905061056a565b868310156105ac57848901516105a8601f8916826104b5565b8355505b6001600288020188555050505b505050505050565b6105ca81610234565b82525050565b60006020820190506105e560008301846105c1565b92915050565b6140be806105fa6000396000f3fe608060405234801561001057600080fd5b50600436106101725760003560e01c806382260f35116100de578063b88d4fde11610097578063e985e9c511610071578063e985e9c51461044c578063eacabe141461047c578063f119f567146104ac578063f2fde38b146104c857610172565b8063b88d4fde146103e2578063c87b56dd146103fe578063d9bb5d211461042e57610172565b806382260f351461031d5780638da5cb5b1461035257806395d89b4114610370578063a22cb4651461038e578063a7eec44b146103aa578063b28226be146103c657610172565b806323b872dd1161013057806323b872dd1461024b57806342842e0e1461026757806359e4713d146102835780636352211e146102b357806370a08231146102e3578063715018a61461031357610172565b806201d0d01461017757806301ffc9a71461019357806306fdde03146101c3578063081812fc146101e1578063095ea7b31461021157806318160ddd1461022d575b600080fd5b610191600480360381019061018c9190612ca0565b6104e4565b005b6101ad60048036038101906101a89190612d7b565b61073d565b6040516101ba9190612dc3565b60405180910390f35b6101cb61074f565b6040516101d89190612e5d565b60405180910390f35b6101fb60048036038101906101f69190612e7f565b6107e1565b6040516102089190612eed565b60405180910390f35b61022b60048036038101906102269190612f34565b6107fd565b005b610235610813565b6040516102429190612f83565b60405180910390f35b61026560048036038101906102609190612f9e565b61081d565b005b610281600480360381019061027c9190612f9e565b61091f565b005b61029d60048036038101906102989190612ff1565b61093f565b6040516102aa9190612e5d565b60405180910390f35b6102cd60048036038101906102c89190612e7f565b610a88565b6040516102da9190612eed565b60405180910390f35b6102fd60048036038101906102f89190613031565b610a9a565b60405161030a9190612f83565b60405180910390f35b61031b610b54565b005b61033760048036038101906103329190612e7f565b610b68565b604051610349969594939291906130d5565b60405180910390f35b61035a610d8f565b6040516103679190612eed565b60405180910390f35b610378610db9565b6040516103859190612e5d565b60405180910390f35b6103a860048036038101906103a39190613169565b610e4b565b005b6103c460048036038101906103bf9190612e7f565b610e61565b005b6103e060048036038101906103db9190613271565b61102e565b005b6103fc60048036038101906103f791906133b1565b611288565b005b61041860048036038101906104139190612e7f565b6112ad565b6040516104259190612e5d565b60405180910390f35b6104366113c0565b6040516104439190612f83565b60405180910390f35b61046660048036038101906104619190613434565b6113c5565b6040516104739190612dc3565b60405180910390f35b61049660048036038101906104919190613474565b611459565b6040516104a39190612f83565b60405180910390f35b6104c660048036038101906104c19190612e7f565b611659565b005b6104e260048036038101906104dd9190613031565b611993565b005b6104ec611a19565b600073ffffffffffffffffffffffffffffffffffffffff1661050d85611aa0565b73ffffffffffffffffffffffffffffffffffffffff1603610563576040517f08c379a000000000000000000000000000000000000000000000000000000000815260040161055a90613542565b60405180910390fd5b6004808111156105765761057561305e565b5b60ff1683600481111561058c5761058b61305e565b5b60ff1611156105d0576040517f08c379a00000000000000000000000000000000000000000000000000000000081526004016105c7906135ae565b60405180910390fd5b6000600960008681526020019081526020016000209050828160030160008660048111156106015761060061305e565b5b60ff1660ff168152602001908152602001600020908161062191906137da565b506004808111156106355761063461305e565b5b8460048111156106485761064761305e565b5b1461068057818160040160008660048111156106675761066661305e565b5b60ff1660ff168152602001908152602001600020819055505b8360048111156106935761069261305e565b5b8160000160009054906101000a900460ff1660048111156106b7576106b661305e565b5b036106c7576106c68584611add565b5b847fea5f773faf61866da8fbc069ff1a7e28183ba771c586e80ca3ca29d645043a5985856004808111156106fe576106fd61305e565b5b8860048111156107115761071061305e565b5b0361071d57600061071f565b855b60405161072e939291906138ac565b60405180910390a25050505050565b600061074882611b39565b9050919050565b60606000805461075e906135fd565b80601f016020809104026020016040519081016040528092919081815260200182805461078a906135fd565b80156107d75780601f106107ac576101008083540402835291602001916107d7565b820191906000526020600020905b8154815290600101906020018083116107ba57829003601f168201915b5050505050905090565b60006107ec82611b9a565b506107f682611c22565b9050919050565b61080f828261080a611c5f565b611c67565b5050565b6000600854905090565b600073ffffffffffffffffffffffffffffffffffffffff168273ffffffffffffffffffffffffffffffffffffffff160361088f5760006040517f64a0ae920000000000000000000000000000000000000000000000000000000081526004016108869190612eed565b60405180910390fd5b60006108a3838361089e611c5f565b611c79565b90508373ffffffffffffffffffffffffffffffffffffffff168173ffffffffffffffffffffffffffffffffffffffff1614610919578382826040517f64283d7b000000000000000000000000000000000000000000000000000000008152600401610910939291906138ea565b60405180910390fd5b50505050565b61093a83838360405180602001604052806000815250611288565b505050565b6060600073ffffffffffffffffffffffffffffffffffffffff1661096284611aa0565b73ffffffffffffffffffffffffffffffffffffffff16036109b8576040517f08c379a00000000000000000000000000000000000000000000000000000000081526004016109af90613542565b60405180910390fd5b6009600084815260200190815260200160002060030160008360048111156109e3576109e261305e565b5b60ff1660ff1681526020019081526020016000208054610a02906135fd565b80601f0160208091040260200160405190810160405280929190818152602001828054610a2e906135fd565b8015610a7b5780601f10610a5057610100808354040283529160200191610a7b565b820191906000526020600020905b815481529060010190602001808311610a5e57829003601f168201915b5050505050905092915050565b6000610a9382611b9a565b9050919050565b60008073ffffffffffffffffffffffffffffffffffffffff168273ffffffffffffffffffffffffffffffffffffffff1603610b0d5760006040517f89c62b64000000000000000000000000000000000000000000000000000000008152600401610b049190612eed565b60405180910390fd5b600360008373ffffffffffffffffffffffffffffffffffffffff1673ffffffffffffffffffffffffffffffffffffffff168152602001908152602001600020549050919050565b610b5c611a19565b610b666000611e93565b565b600080600080606060008073ffffffffffffffffffffffffffffffffffffffff16610b9288611aa0565b73ffffffffffffffffffffffffffffffffffffffff1603610be8576040517f08c379a0000000000000000000000000000000000000000000000000000000008152600401610bdf90613542565b60405180910390fd5b60006009600089815260200190815260200160002090508060000160009054906101000a900460ff16965080600101549550806002015494508060030160008260000160009054906101000a900460ff166004811115610c4b57610c4a61305e565b5b60ff1660ff1681526020019081526020016000208054610c6a906135fd565b80601f0160208091040260200160405190810160405280929190818152602001828054610c96906135fd565b8015610ce35780601f10610cb857610100808354040283529160200191610ce3565b820191906000526020600020905b815481529060010190602001808311610cc657829003601f168201915b505050505092506000600480811115610cff57610cfe61305e565b5b8260000160009054906101000a900460ff166004811115610d2357610d2261305e565b5b14905080610d6f578160040160008360000160009054906101000a900460ff166004811115610d5557610d5461305e565b5b60ff1660ff16815260200190815260200160002054610d72565b60005b945080158015610d825750848710155b9250505091939550919395565b6000600760009054906101000a900473ffffffffffffffffffffffffffffffffffffffff16905090565b606060018054610dc8906135fd565b80601f0160208091040260200160405190810160405280929190818152602001828054610df4906135fd565b8015610e415780601f10610e1657610100808354040283529160200191610e41565b820191906000526020600020905b815481529060010190602001808311610e2457829003601f168201915b5050505050905090565b610e5d610e56611c5f565b8383611f59565b5050565b3373ffffffffffffffffffffffffffffffffffffffff16610e8182611aa0565b73ffffffffffffffffffffffffffffffffffffffff1614610ed7576040517f08c379a0000000000000000000000000000000000000000000000000000000008152600401610ece90613993565b60405180910390fd5b6000600960008381526020019081526020016000209050600480811115610f0157610f0061305e565b5b8160000160009054906101000a900460ff166004811115610f2557610f2461305e565b5b03610f65576040517f08c379a0000000000000000000000000000000000000000000000000000000008152600401610f5c90613a25565b60405180910390fd5b60008160020154610f769190613a74565b421015610fb8576040517f08c379a0000000000000000000000000000000000000000000000000000000008152600401610faf90613af4565b60405180910390fd5b806001016000815480929190610fcd90613b14565b9190505550428160020181905550817ff8352533b7f047db0c580b291f56856f466a9c4dd2c27b98dc6e38a3bcd2465882600101548360000160009054906101000a900460ff16604051611022929190613b5c565b60405180910390a25050565b611036611a19565b6004808111156110495761104861305e565b5b60ff1683600481111561105f5761105e61305e565b5b60ff1611156110a3576040517f08c379a000000000000000000000000000000000000000000000000000000000815260040161109a906135ae565b60405180910390fd5b60005b84518110156112115760008582815181106110c4576110c3613b85565b5b60200260200101519050600073ffffffffffffffffffffffffffffffffffffffff166110ef82611aa0565b73ffffffffffffffffffffffffffffffffffffffff16146112035760006009600083815260200190815260200160002090508481600301600088600481111561113b5761113a61305e565b5b60ff1660ff168152602001908152602001600020908161115b91906137da565b5060048081111561116f5761116e61305e565b5b8660048111156111825761118161305e565b5b146111ba57838160040160008860048111156111a1576111a061305e565b5b60ff1660ff168152602001908152602001600020819055505b8560048111156111cd576111cc61305e565b5b8160000160009054906101000a900460ff1660048111156111f1576111f061305e565b5b03611201576112008286611add565b5b505b5080806001019150506110a6565b507f85cdac8001b95f4cbb566dcfff89fc264126861deb9e380b152494482ea75b768484846004808111156112495761124861305e565b5b87600481111561125c5761125b61305e565b5b0361126857600061126a565b845b60405161127a9493929190613c72565b60405180910390a150505050565b61129384848461081d565b6112a761129e611c5f565b858585856120c8565b50505050565b60606112b882611b9a565b5060006006600084815260200190815260200160002080546112d9906135fd565b80601f0160208091040260200160405190810160405280929190818152602001828054611305906135fd565b80156113525780601f1061132757610100808354040283529160200191611352565b820191906000526020600020905b81548152906001019060200180831161133557829003601f168201915b505050505090506000611363612279565b905060008151036113785781925050506113bb565b6000825111156113ad578082604051602001611395929190613d01565b604051602081830303815290604052925050506113bb565b6113b684612290565b925050505b919050565b600081565b6000600560008473ffffffffffffffffffffffffffffffffffffffff1673ffffffffffffffffffffffffffffffffffffffff16815260200190815260200160002060008373ffffffffffffffffffffffffffffffffffffffff1673ffffffffffffffffffffffffffffffffffffffff16815260200190815260200160002060009054906101000a900460ff16905092915050565b6000611463611a19565b6008600081548092919061147690613b14565b91905055506000600854905061148c84826122f9565b600060096000838152602001908152602001600020905060008160000160006101000a81548160ff021916908360048111156114cb576114ca61305e565b5b0217905550838160030160008060048111156114ea576114e961305e565b5b60ff1660ff168152602001908152602001600020908161150a91906137da565b506115158285611add565b60038160040160008060048111156115305761152f61305e565b5b60ff1660ff168152602001908152602001600020819055506005816004016000600160048111156115645761156361305e565b5b60ff1660ff168152602001908152602001600020819055506007816004016000600260048111156115985761159761305e565b5b60ff1660ff16815260200190815260200160002081905550600a816004016000600360048111156115cc576115cb61305e565b5b60ff1660ff16815260200190815260200160002081905550817fea5f773faf61866da8fbc069ff1a7e28183ba771c586e80ca3ca29d645043a596000868460040160008060048111156116225761162161305e565b5b60ff1660ff16815260200190815260200160002054604051611646939291906138ac565b60405180910390a2819250505092915050565b3373ffffffffffffffffffffffffffffffffffffffff1661167982611aa0565b73ffffffffffffffffffffffffffffffffffffffff16146116cf576040517f08c379a00000000000000000000000000000000000000000000000000000000081526004016116c690613993565b60405180910390fd5b600060096000838152602001908152602001600020905060008160000160009054906101000a900460ff16905060048081111561170f5761170e61305e565b5b8160048111156117225761172161305e565b5b03611762576040517f08c379a000000000000000000000000000000000000000000000000000000000815260040161175990613d97565b60405180910390fd5b600082600401600083600481111561177d5761177c61305e565b5b60ff1660ff16815260200190815260200160002054905080836001015410156117db576040517f08c379a00000000000000000000000000000000000000000000000000000000081526004016117d290613e29565b60405180910390fd5b600060018360048111156117f2576117f161305e565b5b6117fc9190613e56565b60ff1660048111156118115761181061305e565b5b9050808460000160006101000a81548160ff0219169083600481111561183a5761183961305e565b5b02179055506000846001018190555060008460030160008360048111156118645761186361305e565b5b60ff1660ff1681526020019081526020016000208054611883906135fd565b80601f01602080910402602001604051908101604052809291908181526020018280546118af906135fd565b80156118fc5780601f106118d1576101008083540402835291602001916118fc565b820191906000526020600020905b8154815290600101906020018083116118df57829003601f168201915b505050505090506000815111611947576040517f08c379a000000000000000000000000000000000000000000000000000000000815260040161193e90613efd565b60405180910390fd5b6119518682611add565b857f4de5be88c9b13e976fcfac23a7386c528d753c7571d2ae51525f36e5c26518748383604051611983929190613f1d565b60405180910390a2505050505050565b61199b611a19565b600073ffffffffffffffffffffffffffffffffffffffff168173ffffffffffffffffffffffffffffffffffffffff1603611a0d5760006040517f1e4fbdf7000000000000000000000000000000000000000000000000000000008152600401611a049190612eed565b60405180910390fd5b611a1681611e93565b50565b611a21611c5f565b73ffffffffffffffffffffffffffffffffffffffff16611a3f610d8f565b73ffffffffffffffffffffffffffffffffffffffff1614611a9e57611a62611c5f565b6040517f118cdaa7000000000000000000000000000000000000000000000000000000008152600401611a959190612eed565b60405180910390fd5b565b60006002600083815260200190815260200160002060009054906101000a900473ffffffffffffffffffffffffffffffffffffffff169050919050565b80600660008481526020019081526020016000209081611afd91906137da565b507ff8e1a15aba9398e019f0b49df1a4fde98ee17ae345cb5f6b5e2c27f5033e8ce782604051611b2d9190612f83565b60405180910390a15050565b6000634906490660e01b7bffffffffffffffffffffffffffffffffffffffffffffffffffffffff1916827bffffffffffffffffffffffffffffffffffffffffffffffffffffffff19161480611b935750611b9282612317565b5b9050919050565b600080611ba683611aa0565b9050600073ffffffffffffffffffffffffffffffffffffffff168173ffffffffffffffffffffffffffffffffffffffff1603611c1957826040517f7e273289000000000000000000000000000000000000000000000000000000008152600401611c109190612f83565b60405180910390fd5b80915050919050565b60006004600083815260200190815260200160002060009054906101000a900473ffffffffffffffffffffffffffffffffffffffff169050919050565b600033905090565b611c7483838360016123f9565b505050565b600080611c8584611aa0565b9050600073ffffffffffffffffffffffffffffffffffffffff168373ffffffffffffffffffffffffffffffffffffffff1614611cc757611cc68184866125be565b5b600073ffffffffffffffffffffffffffffffffffffffff168173ffffffffffffffffffffffffffffffffffffffff1614611d5857611d096000856000806123f9565b6001600360008373ffffffffffffffffffffffffffffffffffffffff1673ffffffffffffffffffffffffffffffffffffffff168152602001908152602001600020600082825403925050819055505b600073ffffffffffffffffffffffffffffffffffffffff168573ffffffffffffffffffffffffffffffffffffffff1614611ddb576001600360008773ffffffffffffffffffffffffffffffffffffffff1673ffffffffffffffffffffffffffffffffffffffff168152602001908152602001600020600082825401925050819055505b846002600086815260200190815260200160002060006101000a81548173ffffffffffffffffffffffffffffffffffffffff021916908373ffffffffffffffffffffffffffffffffffffffff160217905550838573ffffffffffffffffffffffffffffffffffffffff168273ffffffffffffffffffffffffffffffffffffffff167fddf252ad1be2c89b69c2b068fc378daa952ba7f163c4a11628f55a4df523b3ef60405160405180910390a4809150509392505050565b6000600760009054906101000a900473ffffffffffffffffffffffffffffffffffffffff16905081600760006101000a81548173ffffffffffffffffffffffffffffffffffffffff021916908373ffffffffffffffffffffffffffffffffffffffff1602179055508173ffffffffffffffffffffffffffffffffffffffff168173ffffffffffffffffffffffffffffffffffffffff167f8be0079c531659141344cd1fd0a4f28419497f9722a3daafe3b4186f6b6457e060405160405180910390a35050565b600073ffffffffffffffffffffffffffffffffffffffff168273ffffffffffffffffffffffffffffffffffffffff1603611fca57816040517f5b08ba18000000000000000000000000000000000000000000000000000000008152600401611fc19190612eed565b60405180910390fd5b80600560008573ffffffffffffffffffffffffffffffffffffffff1673ffffffffffffffffffffffffffffffffffffffff16815260200190815260200160002060008473ffffffffffffffffffffffffffffffffffffffff1673ffffffffffffffffffffffffffffffffffffffff16815260200190815260200160002060006101000a81548160ff0219169083151502179055508173ffffffffffffffffffffffffffffffffffffffff168373ffffffffffffffffffffffffffffffffffffffff167f17307eab39ab6107e8899845ad3d59bd9653f200f220920489ca2b5937696c31836040516120bb9190612dc3565b60405180910390a3505050565b60008373ffffffffffffffffffffffffffffffffffffffff163b1115612272578273ffffffffffffffffffffffffffffffffffffffff1663150b7a02868685856040518563ffffffff1660e01b81526004016121279493929190613fa2565b6020604051808303816000875af192505050801561216357506040513d601f19601f820116820180604052508101906121609190614003565b60015b6121e7573d8060008114612193576040519150601f19603f3d011682016040523d82523d6000602084013e612198565b606091505b5060008151036121df57836040517f64a0ae920000000000000000000000000000000000000000000000000000000081526004016121d69190612eed565b60405180910390fd5b805181602001fd5b63150b7a0260e01b7bffffffffffffffffffffffffffffffffffffffffffffffffffffffff1916817bffffffffffffffffffffffffffffffffffffffffffffffffffffffff19161461227057836040517f64a0ae920000000000000000000000000000000000000000000000000000000081526004016122679190612eed565b60405180910390fd5b505b5050505050565b606060405180602001604052806000815250905090565b606061229b82611b9a565b5060006122a6612279565b905060008151116122c657604051806020016040528060008152506122f1565b806122d084612682565b6040516020016122e1929190613d01565b6040516020818303038152906040525b915050919050565b612313828260405180602001604052806000815250612750565b5050565b60007f80ac58cd000000000000000000000000000000000000000000000000000000007bffffffffffffffffffffffffffffffffffffffffffffffffffffffff1916827bffffffffffffffffffffffffffffffffffffffffffffffffffffffff191614806123e257507f5b5e139f000000000000000000000000000000000000000000000000000000007bffffffffffffffffffffffffffffffffffffffffffffffffffffffff1916827bffffffffffffffffffffffffffffffffffffffffffffffffffffffff1916145b806123f257506123f182612774565b5b9050919050565b80806124325750600073ffffffffffffffffffffffffffffffffffffffff168273ffffffffffffffffffffffffffffffffffffffff1614155b1561256657600061244284611b9a565b9050600073ffffffffffffffffffffffffffffffffffffffff168373ffffffffffffffffffffffffffffffffffffffff16141580156124ad57508273ffffffffffffffffffffffffffffffffffffffff168173ffffffffffffffffffffffffffffffffffffffff1614155b80156124c057506124be81846113c5565b155b1561250257826040517fa9fbf51f0000000000000000000000000000000000000000000000000000000081526004016124f99190612eed565b60405180910390fd5b811561256457838573ffffffffffffffffffffffffffffffffffffffff168273ffffffffffffffffffffffffffffffffffffffff167f8c5be1e5ebec7d5bd14f71427d1e84f3dd0314c0f7b2291e5b200ac8c7c3b92560405160405180910390a45b505b836004600085815260200190815260200160002060006101000a81548173ffffffffffffffffffffffffffffffffffffffff021916908373ffffffffffffffffffffffffffffffffffffffff16021790555050505050565b6125c98383836127de565b61267d57600073ffffffffffffffffffffffffffffffffffffffff168373ffffffffffffffffffffffffffffffffffffffff160361263e57806040517f7e2732890000000000000000000000000000000000000000000000000000000081526004016126359190612f83565b60405180910390fd5b81816040517f177e802f000000000000000000000000000000000000000000000000000000008152600401612674929190614030565b60405180910390fd5b505050565b6060600060016126918461289f565b01905060008167ffffffffffffffff8111156126b0576126af612b75565b5b6040519080825280601f01601f1916602001820160405280156126e25781602001600182028036833780820191505090505b509050600082602001820190505b600115612745578080600190039150507f3031323334353637383961626364656600000000000000000000000000000000600a86061a8153600a858161273957612738614059565b5b049450600085036126f0575b819350505050919050565b61275a83836129f2565b61276f612765611c5f565b60008585856120c8565b505050565b60007f01ffc9a7000000000000000000000000000000000000000000000000000000007bffffffffffffffffffffffffffffffffffffffffffffffffffffffff1916827bffffffffffffffffffffffffffffffffffffffffffffffffffffffff1916149050919050565b60008073ffffffffffffffffffffffffffffffffffffffff168373ffffffffffffffffffffffffffffffffffffffff161415801561289657508273ffffffffffffffffffffffffffffffffffffffff168473ffffffffffffffffffffffffffffffffffffffff161480612857575061285684846113c5565b5b8061289557508273ffffffffffffffffffffffffffffffffffffffff1661287d83611c22565b73ffffffffffffffffffffffffffffffffffffffff16145b5b90509392505050565b600080600090507a184f03e93ff9f4daa797ed6e38ed64bf6a1f01000000000000000083106128fd577a184f03e93ff9f4daa797ed6e38ed64bf6a1f01000000000000000083816128f3576128f2614059565b5b0492506040810190505b6d04ee2d6d415b85acef8100000000831061293a576d04ee2d6d415b85acef810000000083816129305761292f614059565b5b0492506020810190505b662386f26fc10000831061296957662386f26fc10000838161295f5761295e614059565b5b0492506010810190505b6305f5e1008310612992576305f5e100838161298857612987614059565b5b0492506008810190505b61271083106129b75761271083816129ad576129ac614059565b5b0492506004810190505b606483106129da57606483816129d0576129cf614059565b5b0492506002810190505b600a83106129e9576001810190505b80915050919050565b600073ffffffffffffffffffffffffffffffffffffffff168273ffffffffffffffffffffffffffffffffffffffff1603612a645760006040517f64a0ae92000000000000000000000000000000000000000000000000000000008152600401612a5b9190612eed565b60405180910390fd5b6000612a7283836000611c79565b9050600073ffffffffffffffffffffffffffffffffffffffff168173ffffffffffffffffffffffffffffffffffffffff1614612ae65760006040517f73c6ac6e000000000000000000000000000000000000000000000000000000008152600401612add9190612eed565b60405180910390fd5b505050565b6000604051905090565b600080fd5b600080fd5b6000819050919050565b612b1281612aff565b8114612b1d57600080fd5b50565b600081359050612b2f81612b09565b92915050565b60058110612b4257600080fd5b50565b600081359050612b5481612b35565b92915050565b600080fd5b600080fd5b6000601f19601f8301169050919050565b7f4e487b7100000000000000000000000000000000000000000000000000000000600052604160045260246000fd5b612bad82612b64565b810181811067ffffffffffffffff82111715612bcc57612bcb612b75565b5b80604052505050565b6000612bdf612aeb565b9050612beb8282612ba4565b919050565b600067ffffffffffffffff821115612c0b57612c0a612b75565b5b612c1482612b64565b9050602081019050919050565b82818337600083830152505050565b6000612c43612c3e84612bf0565b612bd5565b905082815260208101848484011115612c5f57612c5e612b5f565b5b612c6a848285612c21565b509392505050565b600082601f830112612c8757612c86612b5a565b5b8135612c97848260208601612c30565b91505092915050565b60008060008060808587031215612cba57612cb9612af5565b5b6000612cc887828801612b20565b9450506020612cd987828801612b45565b935050604085013567ffffffffffffffff811115612cfa57612cf9612afa565b5b612d0687828801612c72565b9250506060612d1787828801612b20565b91505092959194509250565b60007fffffffff0000000000000000000000000000000000000000000000000000000082169050919050565b612d5881612d23565b8114612d6357600080fd5b50565b600081359050612d7581612d4f565b92915050565b600060208284031215612d9157612d90612af5565b5b6000612d9f84828501612d66565b91505092915050565b60008115159050919050565b612dbd81612da8565b82525050565b6000602082019050612dd86000830184612db4565b92915050565b600081519050919050565b600082825260208201905092915050565b60005b83811015612e18578082015181840152602081019050612dfd565b60008484015250505050565b6000612e2f82612dde565b612e398185612de9565b9350612e49818560208601612dfa565b612e5281612b64565b840191505092915050565b60006020820190508181036000830152612e778184612e24565b905092915050565b600060208284031215612e9557612e94612af5565b5b6000612ea384828501612b20565b91505092915050565b600073ffffffffffffffffffffffffffffffffffffffff82169050919050565b6000612ed782612eac565b9050919050565b612ee781612ecc565b82525050565b6000602082019050612f026000830184612ede565b92915050565b612f1181612ecc565b8114612f1c57600080fd5b50565b600081359050612f2e81612f08565b92915050565b60008060408385031215612f4b57612f4a612af5565b5b6000612f5985828601612f1f565b9250506020612f6a85828601612b20565b9150509250929050565b612f7d81612aff565b82525050565b6000602082019050612f986000830184612f74565b92915050565b600080600060608486031215612fb757612fb6612af5565b5b6000612fc586828701612f1f565b9350506020612fd686828701612f1f565b9250506040612fe786828701612b20565b9150509250925092565b6000806040838503121561300857613007612af5565b5b600061301685828601612b20565b925050602061302785828601612b45565b9150509250929050565b60006020828403121561304757613046612af5565b5b600061305584828501612f1f565b91505092915050565b7f4e487b7100000000000000000000000000000000000000000000000000000000600052602160045260246000fd5b6005811061309e5761309d61305e565b5b50565b60008190506130af8261308d565b919050565b60006130bf826130a1565b9050919050565b6130cf816130b4565b82525050565b600060c0820190506130ea60008301896130c6565b6130f76020830188612f74565b6131046040830187612f74565b6131116060830186612f74565b81810360808301526131238185612e24565b905061313260a0830184612db4565b979650505050505050565b61314681612da8565b811461315157600080fd5b50565b6000813590506131638161313d565b92915050565b600080604083850312156131805761317f612af5565b5b600061318e85828601612f1f565b925050602061319f85828601613154565b9150509250929050565b600067ffffffffffffffff8211156131c4576131c3612b75565b5b602082029050602081019050919050565b600080fd5b60006131ed6131e8846131a9565b612bd5565b905080838252602082019050602084028301858111156132105761320f6131d5565b5b835b8181101561323957806132258882612b20565b845260208401935050602081019050613212565b5050509392505050565b600082601f83011261325857613257612b5a565b5b81356132688482602086016131da565b91505092915050565b6000806000806080858703121561328b5761328a612af5565b5b600085013567ffffffffffffffff8111156132a9576132a8612afa565b5b6132b587828801613243565b94505060206132c687828801612b45565b935050604085013567ffffffffffffffff8111156132e7576132e6612afa565b5b6132f387828801612c72565b925050606061330487828801612b20565b91505092959194509250565b600067ffffffffffffffff82111561332b5761332a612b75565b5b61333482612b64565b9050602081019050919050565b600061335461334f84613310565b612bd5565b9050828152602081018484840111156133705761336f612b5f565b5b61337b848285612c21565b509392505050565b600082601f83011261339857613397612b5a565b5b81356133a8848260208601613341565b91505092915050565b600080600080608085870312156133cb576133ca612af5565b5b60006133d987828801612f1f565b94505060206133ea87828801612f1f565b93505060406133fb87828801612b20565b925050606085013567ffffffffffffffff81111561341c5761341b612afa565b5b61342887828801613383565b91505092959194509250565b6000806040838503121561344b5761344a612af5565b5b600061345985828601612f1f565b925050602061346a85828601612f1f565b9150509250929050565b6000806040838503121561348b5761348a612af5565b5b600061349985828601612f1f565b925050602083013567ffffffffffffffff8111156134ba576134b9612afa565b5b6134c685828601612c72565b9150509250929050565b7f45766f6c76696e674e46543a20546f6b656e20646f6573206e6f74206578697360008201527f7400000000000000000000000000000000000000000000000000000000000000602082015250565b600061352c602183612de9565b9150613537826134d0565b604082019050919050565b6000602082019050818103600083015261355b8161351f565b9050919050565b7f45766f6c76696e674e46543a20496e76616c6964207374616765000000000000600082015250565b6000613598601a83612de9565b91506135a382613562565b602082019050919050565b600060208201905081810360008301526135c78161358b565b9050919050565b7f4e487b7100000000000000000000000000000000000000000000000000000000600052602260045260246000fd5b6000600282049050600182168061361557607f821691505b602082108103613628576136276135ce565b5b50919050565b60008190508160005260206000209050919050565b60006020601f8301049050919050565b600082821b905092915050565b6000600883026136907fffffffffffffffffffffffffffffffffffffffffffffffffffffffffffffffff82613653565b61369a8683613653565b95508019841693508086168417925050509392505050565b6000819050919050565b60006136d76136d26136cd84612aff565b6136b2565b612aff565b9050919050565b6000819050919050565b6136f1836136bc565b6137056136fd826136de565b848454613660565b825550505050565b600090565b61371a61370d565b6137258184846136e8565b505050565b5b818110156137495761373e600082613712565b60018101905061372b565b5050565b601f82111561378e5761375f8161362e565b61376884613643565b81016020851015613777578190505b61378b61378385613643565b83018261372a565b50505b505050565b600082821c905092915050565b60006137b160001984600802613793565b1980831691505092915050565b60006137ca83836137a0565b9150826002028217905092915050565b6137e382612dde565b67ffffffffffffffff8111156137fc576137fb612b75565b5b61380682546135fd565b61381182828561374d565b600060209050601f8311600181146138445760008415613832578287015190505b61383c85826137be565b8655506138a4565b601f1984166138528661362e565b60005b8281101561387a57848901518255600182019150602085019450602081019050613855565b868310156138975784890151613893601f8916826137a0565b8355505b6001600288020188555050505b505050505050565b60006060820190506138c160008301866130c6565b81810360208301526138d38185612e24565b90506138e26040830184612f74565b949350505050565b60006060820190506138ff6000830186612ede565b61390c6020830185612f74565b6139196040830184612ede565b949350505050565b7f45766f6c76696e674e46543a2043616c6c6572206973206e6f7420746865206f60008201527f776e657200000000000000000000000000000000000000000000000000000000602082015250565b600061397d602483612de9565b915061398882613921565b604082019050919050565b600060208201905081810360008301526139ac81613970565b9050919050565b7f45766f6c76696e674e46543a204e46542069732066756c6c792065766f6c766560008201527f6400000000000000000000000000000000000000000000000000000000000000602082015250565b6000613a0f602183612de9565b9150613a1a826139b3565b604082019050919050565b60006020820190508181036000830152613a3e81613a02565b9050919050565b7f4e487b7100000000000000000000000000000000000000000000000000000000600052601160045260246000fd5b6000613a7f82612aff565b9150613a8a83612aff565b9250828201905080821115613aa257613aa1613a45565b5b92915050565b7f45766f6c76696e674e46543a205761746572696e6720746f6f20736f6f6e0000600082015250565b6000613ade601e83612de9565b9150613ae982613aa8565b602082019050919050565b60006020820190508181036000830152613b0d81613ad1565b9050919050565b6000613b1f82612aff565b91507fffffffffffffffffffffffffffffffffffffffffffffffffffffffffffffffff8203613b5157613b50613a45565b5b600182019050919050565b6000604082019050613b716000830185612f74565b613b7e60208301846130c6565b9392505050565b7f4e487b7100000000000000000000000000000000000000000000000000000000600052603260045260246000fd5b600081519050919050565b600082825260208201905092915050565b6000819050602082019050919050565b613be981612aff565b82525050565b6000613bfb8383613be0565b60208301905092915050565b6000602082019050919050565b6000613c1f82613bb4565b613c298185613bbf565b9350613c3483613bd0565b8060005b83811015613c65578151613c4c8882613bef565b9750613c5783613c07565b925050600181019050613c38565b5085935050505092915050565b60006080820190508181036000830152613c8c8187613c14565b9050613c9b60208301866130c6565b8181036040830152613cad8185612e24565b9050613cbc6060830184612f74565b95945050505050565b600081905092915050565b6000613cdb82612dde565b613ce58185613cc5565b9350613cf5818560208601612dfa565b80840191505092915050565b6000613d0d8285613cd0565b9150613d198284613cd0565b91508190509392505050565b7f45766f6c76696e674e46543a20416c72656164792066756c6c792065766f6c7660008201527f6564000000000000000000000000000000000000000000000000000000000000602082015250565b6000613d81602283612de9565b9150613d8c82613d25565b604082019050919050565b60006020820190508181036000830152613db081613d74565b9050919050565b7f45766f6c76696e674e46543a204e6f7420656e6f756768207761746572696e6760008201527f7320746f2065766f6c7665000000000000000000000000000000000000000000602082015250565b6000613e13602b83612de9565b9150613e1e82613db7565b604082019050919050565b60006020820190508181036000830152613e4281613e06565b9050919050565b600060ff82169050919050565b6000613e6182613e49565b9150613e6c83613e49565b9250828201905060ff811115613e8557613e84613a45565b5b92915050565b7f45766f6c76696e674e46543a204e65787420737461676520555249206e6f742060008201527f7365742062792061646d696e20666f72207468697320746f6b656e0000000000602082015250565b6000613ee7603b83612de9565b9150613ef282613e8b565b604082019050919050565b60006020820190508181036000830152613f1681613eda565b9050919050565b6000604082019050613f3260008301856130c6565b8181036020830152613f448184612e24565b90509392505050565b600081519050919050565b600082825260208201905092915050565b6000613f7482613f4d565b613f7e8185613f58565b9350613f8e818560208601612dfa565b613f9781612b64565b840191505092915050565b6000608082019050613fb76000830187612ede565b613fc46020830186612ede565b613fd16040830185612f74565b8181036060830152613fe38184613f69565b905095945050505050565b600081519050613ffd81612d4f565b92915050565b60006020828403121561401957614018612af5565b5b600061402784828501613fee565b91505092915050565b60006040820190506140456000830185612ede565b6140526020830184612f74565b9392505050565b7f4e487b7100000000000000000000000000000000000000000000000000000000600052601260045260246000fdfea2646970667358221220c97eec2bf5c32f33a189ca0c1fd0c758dcc5eae62ca6cffe52490161d385e81964736f6c634300081c0033",
  "linkReferences": {},
  "deployedLinkReferences": {}
}